:100000000C945C000C946E000C946E000C946E00CA
:100010000C946E000C946E000C946E000C946E00A8
:100020000C946E000C946E000C946E000C946E0098
:100030000C946E000C946E000C946E000C946E0088
:100040000C9412010C946E000C946E000C946E00D3
:100050000C946E000C946E000C946E000C946E0068
:100060000C946E000C946E00000000080002010069
:100070000003040700000000000000000000000072
:10008000250028002B0000000000240027002A0083
:10009000040404040404040402020202020203032E
:1000A0000303030301020408102040800102040836
:1000B000102001020408102011241FBECFEFD8E049
:1000C000DEBFCDBF21E0A0E0B1E001C01D92AD31A7
:1000D000B207E1F70E945C010C94A0040C940000AC
:1000E00090E0FC01EC55FF4F249180579F4FFC019D
:1000F0008491882399F090E0880F991FFC01EA57BA
:10010000FF4FA591B491FC01E458FF4F8591949164
:100110008FB7F894EC91E22BEC938FBF089590E0A9
:10012000FC01E859FF4F2491FC01EC55FF4F34913D
:10013000FC01E057FF4FE491EE23C9F0222339F090
:10014000233001F1A8F4213019F1223029F1F0E037
:10015000EE0FFF1FE458FF4FA591B4918FB7F894AD
:10016000EC91611126C030953E233C938FBF0895DA
:100170002730A9F02830C9F0243049F78091800059
:100180008F7D03C0809180008F7780938000DFCFC8
:1001900084B58F7784BDDBCF84B58F7DFBCF809115
:1001A000B0008F778093B000D2CF8091B0008F7D68
:1001B000F9CF3E2BDACF8E50806480937C00809103
:1001C0007A00806480937A0080917A0086FDFCCF6B
:1001D000809178009091790008953FB7F8948091CC
:1001E000050190910601A0910701B091080126B583
:1001F000A89B05C02F3F19F00196A11DB11D3FBF5F
:10020000BA2FA92F982F8827BC01CD01620F711D2D
:10021000811D911D42E0660F771F881F991F4A9527
:10022000D1F708951F920F920FB60F9211242F93BA
:100230003F938F939F93AF93BF93809101019091D0
:100240000201A0910301B09104013091000123E06B
:10025000230F2D3758F50196A11DB11D20930001E4
:100260008093010190930201A0930301B0930401D4
:100270008091050190910601A0910701B0910801BC
:100280000196A11DB11D8093050190930601A093D5
:100290000701B0930801BF91AF919F918F913F915A
:1002A0002F910F900FBE0F901F90189526E8230FE7
:1002B0000296A11DB11DD2CFCF93DF93CDB7DEB78C
:1002C00028970FB6F894DEBF0FBECDBF789484B5E3
:1002D000826084BD84B5816084BD85B5826085BD42
:1002E00085B5816085BD80916E00816080936E00D0
:1002F00010928100809181008260809381008091C2
:100300008100816080938100809180008160809372
:1003100080008091B10084608093B1008091B00032
:1003200081608093B00080917A00846080937A002D
:1003300080917A00826080937A0080917A00816057
:1003400080937A0080917A00806880937A0010927E
:10035000C10087E00E94700086E00E94700085E086
:100360000E9470008EE00E94DB00BC01990F880B98
:10037000990B0E947E032B013C014092190150927F
:100380001A0160921B0170921C018FE00E94DB0039
:10039000BC01990F880B990B0E947E034B015C01F5
:1003A0008092150190921601A0921701B092180147
:1003B00080E10E94DB007C012AE038E240EA5BE356
:1003C000C301B2010E9433042B013C014092110190
:1003D0005092120160921301709214012AE038E2E7
:1003E00040EA5BE3C501B4010E9433044B015C01A8
:1003F00080920D0190920E01A0920F01B092100117
:10040000B701FF0C880B990B0E947E0320E030E0BF
:1004100040EA50E40E94330420E030E048EC52E42B
:100420000E94330420E030EC4FE754E40E940A03BA
:100430006B017C01C0920901D0920A01E0920B018C
:10044000F0920C010E94ED006D837E838F8398876C
:1004500024E630E040E050E029833A834B835C831C
:100460000E94ED002D813E814F815885621B730BE8
:10047000840B950B683E73408105910588F3898153
:100480009A81AB81BC810197A109B10989839A83C3
:10049000AB83BC832D813E814F81588528513C4FD1
:1004A0004F4F5F4F2D833E834F835887892B8A2B75
:1004B0008B2BB1F621EE3AE744E55FE3C301B201CD
:1004C0000E94050318160CF451C020E030E0A90189
:1004D000C501B4010E94050318160CF120E030E0BC
:1004E00040EF51E4C701B6010E940503181654F00D
:1004F00060E087E00E948F0061E086E00E948F004C
:1005000060E029C020E030E040EF51E4C701B601CF
:100510000E942E0418161CF460E080E0EBCF20E06F
:1005200030E0A901C501B4010E942E041816F4F4AC
:1005300020E030E040EF51E4C701B6010E942E04F4
:100540001816A4F460E080E00E948F0060E086E06E
:100550000E948F0061E085E00E948F0040E050E043
:10056000452B09F4FFCE0E940000FCCE21EE3AE7B5
:1005700044E55FE3C301B2010E942E0418160CF09B
:1005800042C020E030E0A901C501B4010E9405038A
:10059000181684F020E030E040EF51E4C701B601C6
:1005A0000E940503181634F061E087E00E948F0076
:1005B00060E0A3CF20E030E0A901C501B4010E94B2
:1005C0002E041816BCF420E030E040EF51E4C701DF
:1005D000B6010E94050318163CF720E030E040EF1A
:1005E00051E4C701B6010E942E04181664F460E0BD
:1005F00087E0AACF20E030E0A901C501B4010E9444
:100600002E04181654F360E0D0CF0E94B90308F40A
:1006100081E008950E941E030C94F4030E94ED03F0
:1006200058F00E94E60340F029F45F3F29F00C9453
:10063000DD0351110C9428040C94E3030E9405047B
:1006400068F39923B1F3552391F3951B550BBB2701
:10065000AA2762177307840738F09F5F5F4F220F46
:10066000331F441FAA1FA9F335D00E2E3AF0E0E83D
:1006700032D091505040E695001CCAF72BD0FE2F87
:1006800029D0660F771F881FBB1F2617370748071B
:10069000AB07B0E809F0BB0B802DBF01FF279358D3
:1006A0005F4F3AF09E3F510578F00C94DD030C94B7
:1006B00028045F3FE4F3983ED4F3869577956795D9
:1006C000B795F7959F5FC9F7880F911D9695879508
:1006D00097F90895E1E0660F771F881FBB1F621727
:1006E00073078407BA0720F0621B730B840BBA0BE5
:1006F000EE1F88F7E0950895E89409C097FB3EF453
:1007000090958095709561957F4F8F4F9F4F99235E
:10071000A9F0F92F96E9BB279395F69587957795DC
:100720006795B795F111F8CFFAF4BB0F11F460FF9C
:100730001BC06F5F7F4F8F4F9F4F16C0882311F0F4
:1007400096E911C0772321F09EE8872F762F05C008
:10075000662371F096E8862F70E060E02AF09A95A3
:10076000660F771F881FDAF7880F9695879597F998
:100770000895990F0008550FAA0BE0E8FEEF161632
:100780001706E807F907C0F012161306E407F50785
:1007900098F0621B730B840B950B39F40A2661F0F9
:1007A000232B242B252B21F408950A2609F4A1409C
:1007B000A6958FEF811D811D089597F99F6780E8A9
:1007C00070E060E008959FEF80EC089500240A94A3
:1007D0001616170618060906089500240A9412161C
:1007E0001306140605060895092E0394000C11F44F
:1007F000882352F0BB0F40F4BF2B11F460FF04C0FC
:100800006F5F7F4F8F4F9F4F089557FD9058440F54
:10081000551F59F05F3F71F04795880F97FB991F5F
:1008200061F09F3F79F0879508951216130614061C
:10083000551FF2CF4695F1DF08C0161617061806A9
:10084000991FF1CF86957105610508940895E89484
:10085000BB2766277727CB0197F908950E94B90334
:1008600008F48FEF08950E9446040C94F4030E944C
:10087000E60338F00E94ED0320F0952311F00C946C
:10088000DD030C94E30311240C9428040E94050456
:1008900070F3959FC1F3950F50E0551F629FF001D3
:1008A000729FBB27F00DB11D639FAA27F00DB11DEC
:1008B000AA1F649F6627B00DA11D661F829F222775
:1008C000B00DA11D621F739FB00DA11D621F839FFC
:1008D000A00D611D221F749F3327A00D611D231FD2
:1008E000849F600D211D822F762F6A2F11249F5720
:1008F00050409AF0F1F088234AF0EE0FFF1FBB1F23
:10090000661F771F881F91505040A9F79E3F5105E1
:1009100080F00C94DD030C9428045F3FE4F3983ED0
:10092000D4F3869577956795B795F795E7959F5F8B
:10093000C1F7FE2B880F911D9695879597F908951D
:04094000F894FFCF59
:00000001FF
